:060000000A128A1100291A
:10020000332160214F21031383123F308700A00167
:10021000A1010618252186182C2119211021092950
:10022000200808020319152108008801A101890A84
:1002300008000B1D19295A21850AA10AA11C0800D2
:10024000A11D0800880AA101080006182529A00A96
:10025000200800228700092986182C29A0032008DD
:1002600000228700092903178316880189010313D7
:1002700083160614861403138316870109100510CC
:1002800085100511851108108810081188110313B5
:100290008312850186018701880189010800031303
:1002A0008316811281110115811401140313831225
:1002B0005A210800031383129E3081000B1108009D
:0E02C000031383160F140F178F120F1208006E
:100400008A018A140F3982073F3406345B344F3433
:1004100066346D347D3407347F346F3477347C3404
:0804200039345E347934713483
:04400E00C430FF3F7C
:00000001FF
